:020000040800F2
:1000000000040020A5010008FF010008010200080B
:1000100000000000000000000000000000000000E0
:1000200000000000000000000000000003020008C3
:1000300000000000000000000502000807020008A0
:1000400029020008000000002B0200082D02000811
:100050002F020008310200083302000835020008B0
:100060000000000037020008390200083B020008C7
:100070003D0200083F0200084102000800000000A5
:1000800043020008000000000000000045020008D4
:1000900047020008490200084B0200084D02000810
:1000A0004F020008510200085302000855020008E0
:1000B0005702000882B03348016801220A430260F7
:1000C0004168314A0A4042600168304A0A40026091
:1000D00001682F4A0A40026041682E4A0A40426085
:1000E000C16A0F229143C162016B2B4A0A4002632D
:1000F000416B012291434163002181600091019194
:10010000016812040A4302600168802292021140D1
:1001100001910099491C00910199002904D100998D
:10012000A022D2019142EFD101688903CA0F019246
:100130000199012924D11121184A116041684160B7
:10014000416841604168164A0A404260416888221D
:1001500052030A4342600168802252040A4302604B
:1001600001688901FCD541680322914341604168DF
:1001700002220A43426041680C220A40082AFAD14E
:1001800002B07047001002400CB8FFF8FFFFF6FE07
:10019000FFFFFBFFFFFFC0FFACFEFFFF00200240A0
:1001A000FF7FC0FF0548064900220260001D88420B
:1001B000FBD30448804704480047000000000020AB
:1001C000FF1F0020B50000081D02000800F00BF81A
:1001D000002801D000BF00BF002000BF00BF00F01A
:1001E00004F800F003F801207047FEE780B500F046
:1001F00001F801BD0746384600F006F8FBE77047F6
:10020000FEE770477047704780B500BF00BF024AE5
:1002100011001820ABBEFBE72600020000BF00BFA4
:1002200000BF00BFFFF7D2FFFEE7FEE7FEE7FEE7F5
:10023000FEE7FEE7FEE7FEE7FEE7FEE7FEE7FEE796
:10024000FEE7FEE7FEE7FEE7FEE7FEE7FEE7FEE786
:08025000FEE7FEE7FEE7FEE712
:040000050800021DD0
:00000001FF
