:020000040800F2
:100000000004002015020008890200088B02000885
:1000100000000000000000000000000000000000E0
:100020000000000000000000000000008F02000837
:100030000000000000000000910200089302000888
:10004000670200080000000073020008A102000817
:10005000A3020008A5020008A7020008A9020008E0
:1000600000000000AB020008AD020008AF0200086B
:10007000B1020008B3020008B50200080000000049
:10008000B70200080000000000000000B9020008EC
:10009000BB020008BD020008BF020008C102000840
:1000A000C3020008C5020008C7020008C902000810
:1000B000CB02000880B54A48006801210143484846
:1000C000016048480068484901404648016044488A
:1000D000006846490140424801604148006844497F
:1000E00001403F4801603F480068424901403D48A7
:1000F0000160414800680F2188433F4908603F483C
:1001000000683F4901403D4801603E4800680121C8
:1001100088433C49086000203B49086000F001F832
:1001200001BDC0B500200190002000902C4800685F
:100130008021490201432A48016029480068802142
:100140008902084000900198401C01900098002806
:1001500004D10198A021C9018842EED1204800684D
:10016000800302D50120009001E00020009000985B
:10017000012834D11120254908601A48006819491E
:100180000860184800681749086016480068204948
:100190000140144801601348006888214903014365
:1001A000104801600E4800688021490401430C4852
:1001B00001600B4800688001FBD50A4800680321F4
:1001C0008843084908600748006802210143054840
:1001D0000160044800680C2101400829F9D103BDE1
:1001E00000100240041002400CB8FFF8FFFFF6FEBA
:1001F000FFFFFBFFFFFFC0FF2C100240301002404A
:10020000ACFEFFFF34100240081002400020024004
:10021000FF7FC0FF0548064900220260001D88429A
:10022000FBD304488047044800470000000000203A
:10023000FF1F0020B50000089502000800F00BF831
:10024000002801D000BF00BF002000BF00BF00F0A9
:1002500004F800F004F80120704700B5FEE780B50F
:1002600000F002F801BDFEE70746384600F002F84C
:10027000FBE7FEE780B500BF00BF024A110018206F
:10028000ABBEFBE726000200704700B5FEE77047F3
:100290007047704700BF00BF00BF00BFFFF7CEFF31
:1002A000FEE7FEE7FEE7FEE7FEE7FEE7FEE7FEE726
:1002B000FEE7FEE7FEE7FEE7FEE7FEE7FEE7FEE716
:0C02C000FEE7FEE7FEE7FEE7FEE7FEE7D4
:040000050800029558
:00000001FF
